{
  "contractName": "Software",
  "abi": [
    {
      "inputs": [],
      "payable": false,
      "stateMutability": "nonpayable",
      "type": "constructor"
    },
    {
      "anonymous": false,
      "inputs": [
        {
          "indexed": true,
          "internalType": "uint256",
          "name": "_licenceId",
          "type": "uint256"
        }
      ],
      "name": "useEvent",
      "type": "event"
    },
    {
      "constant": true,
      "inputs": [],
      "name": "licenceCount",
      "outputs": [
        {
          "internalType": "uint256",
          "name": "",
          "type": "uint256"
        }
      ],
      "payable": false,
      "stateMutability": "view",
      "type": "function"
    },
    {
      "constant": true,
      "inputs": [
        {
          "internalType": "uint256",
          "name": "",
          "type": "uint256"
        }
      ],
      "name": "licences",
      "outputs": [
        {
          "internalType": "uint256",
          "name": "id",
          "type": "uint256"
        },
        {
          "internalType": "string",
          "name": "userID",
          "type": "string"
        },
        {
          "internalType": "string",
          "name": "option",
          "type": "string"
        },
        {
          "internalType": "uint256",
          "name": "licenceCount",
          "type": "uint256"
        }
      ],
      "payable": false,
      "stateMutability": "view",
      "type": "function"
    },
    {
      "constant": true,
      "inputs": [],
      "name": "userID",
      "outputs": [
        {
          "internalType": "string",
          "name": "",
          "type": "string"
        }
      ],
      "payable": false,
      "stateMutability": "view",
      "type": "function"
    },
    {
      "constant": true,
      "inputs": [
        {
          "internalType": "address",
          "name": "",
          "type": "address"
        }
      ],
      "name": "users",
      "outputs": [
        {
          "internalType": "bool",
          "name": "",
          "type": "bool"
        }
      ],
      "payable": false,
      "stateMutability": "view",
      "type": "function"
    },
    {
      "constant": false,
      "inputs": [
        {
          "internalType": "uint256",
          "name": "_licenceId",
          "type": "uint256"
        }
      ],
      "name": "use",
      "outputs": [],
      "payable": false,
      "stateMutability": "nonpayable",
      "type": "function"
    },
    {
      "constant": true,
      "inputs": [],
      "name": "test",
      "outputs": [
        {
          "internalType": "string",
          "name": "",
          "type": "string"
        }
      ],
      "payable": false,
      "stateMutability": "view",
      "type": "function"
    },
    {
      "constant": true,
      "inputs": [],
      "name": "addressToString",
      "outputs": [
        {
          "internalType": "string",
          "name": "",
          "type": "string"
        }
      ],
      "payable": false,
      "stateMutability": "pure",
      "type": "function"
    }
  ],
  "bytecode": "0x60806040523480156200001157600080fd5b50620000586040518060400160405280601781526020017f526561642d4f6e6c792041636365737320284652454529000000000000000000815250620000ce60201b60201c565b6200009e6040518060400160405280601a81526020017f526561642d5752495445204f6e652d54696d6520416363657373000000000000815250620000ce60201b60201c565b620000c860405180606001604052806021815260200162000cf960219139620000ce60201b60201c565b620002be565b6002600081548092919060010191905055506040518060800160405280600254815260200160038054600181600116156101000203166002900480601f0160208091040260200160405190810160405280929190818152602001828054600181600116156101000203166002900480156200018d5780601f1062000161576101008083540402835291602001916200018d565b820191906000526020600020905b8154815290600101906020018083116200016f57829003601f168201915b505050505081526020018281526020016000815250600160006002548152602001908152602001600020600082015181600001556020820151816001019080519060200190620001df9291906200020f565b506040820151816002019080519060200190620001fe9291906200020f565b506060820151816003015590505050565b828054600181600116156101000203166002900490600052602060002090601f016020900481019282601f106200025257805160ff191683800117855562000283565b8280016001018555821562000283579182015b828111156200028257825182559160200191906001019062000265565b5b50905062000292919062000296565b5090565b620002bb91905b80821115620002b75760008160009055506001016200029d565b5090565b90565b610a2b80620002ce6000396000f3fe608060405234801561001057600080fd5b506004361061007d5760003560e01c8063ab5b44561161005b578063ab5b44561461017f578063bb44aee3146101ad578063e302418a146102ce578063f8a8fd6d146103515761007d565b806369ce81f214610082578063a46e0a3614610105578063a87430ba14610123575b600080fd5b61008a6103d4565b6040518080602001828103825283818151815260200191508051906020019080838360005b838110156100ca5780820151818401526020810190506100af565b50505050905090810190601f1680156100f75780820380516001836020036101000a031916815260200191505b509250505060405180910390f35b61010d6106a2565b6040518082815260200191505060405180910390f35b6101656004803603602081101561013957600080fd5b81019080803573ffffffffffffffffffffffffffffffffffffffff1690602001909291905050506106a8565b604051808215151515815260200191505060405180910390f35b6101ab6004803603602081101561019557600080fd5b81019080803590602001909291905050506106c8565b005b6101d9600480360360208110156101c357600080fd5b81019080803590602001909291905050506107e6565b604051808581526020018060200180602001848152602001838103835286818151815260200191508051906020019080838360005b8381101561022957808201518184015260208101905061020e565b50505050905090810190601f1680156102565780820380516001836020036101000a031916815260200191505b50838103825285818151815260200191508051906020019080838360005b8381101561028f578082015181840152602081019050610274565b50505050905090810190601f1680156102bc5780820380516001836020036101000a031916815260200191505b50965050505050505060405180910390f35b6102d6610946565b6040518080602001828103825283818151815260200191508051906020019080838360005b838110156103165780820151818401526020810190506102fb565b50505050905090810190601f1680156103435780820380516001836020036101000a031916815260200191505b509250505060405180910390f35b6103596109e4565b6040518080602001828103825283818151815260200191508051906020019080838360005b8381101561039957808201518184015260208101905061037e565b50505050905090810190601f1680156103c65780820380516001836020036101000a031916815260200191505b509250505060405180910390f35b606060006001905060007fffffffffffffffffffffffffffffffffffffffffffffffffffffffffffffffff905060008183604051602001808281526020019150506040516020818303038152906040528051906020012060001c8161043557fe5b06905060008160001b905060606040518060400160405280601081526020017f30313233343536373839616263646566000000000000000000000000000000008152509050606060336040519080825280601f01601f1916602001820160405280156104b05781602001600182028038833980820191505090505b5090507f3000000000000000000000000000000000000000000000000000000000000000816000815181106104e157fe5b60200101907effffffffffffffffffffffffffffffffffffffffffffffffffffffffffffff1916908160001a9053507f78000000000000000000000000000000000000000000000000000000000000008160018151811061053e57fe5b60200101907effffffffffffffffffffffffffffffffffffffffffffffffffffffffffffff1916908160001a90535060008090505b60148110156106955782600485600c84016020811061058e57fe5b1a60f81b7effffffffffffffffffffffffffffffffffffffffffffffffffffffffffffff1916901c60f81c60ff16815181106105c657fe5b602001015160f81c60f81b8260028302600201815181106105e357fe5b60200101907effffffffffffffffffffffffffffffffffffffffffffffffffffffffffffff1916908160001a90535082600f60f81b85600c84016020811061062757fe5b1a60f81b1660f81c60ff168151811061063c57fe5b602001015160f81c60f81b82600283026003018151811061065957fe5b60200101907effffffffffffffffffffffffffffffffffffffffffffffffffffffffffffff1916908160001a9053508080600101915050610573565b5080965050505050505090565b60025481565b60006020528060005260406000206000915054906101000a900460ff1681565b6000803373ffffffffffffffffffffffffffffffffffffffff1673ffffffffffffffffffffffffffffffffffffffff16815260200190815260200160002060009054906101000a900460ff161561071e57600080fd5b60008111801561073057506002548111155b61073957600080fd5b60016000803373ffffffffffffffffffffffffffffffffffffffff1673ffffffffffffffffffffffffffffffffffffffff16815260200190815260200160002060006101000a81548160ff0219169083151502179055506001600082815260200190815260200160002060030160008154809291906001019190505550807f8a86765f5497bd333853e24f4bdb1e34bd3eb83d04d4a93396ade22b44ba298160405160405180910390a250565b6001602052806000526040600020600091509050806000015490806001018054600181600116156101000203166002900480601f0160208091040260200160405190810160405280929190818152602001828054600181600116156101000203166002900480156108985780601f1061086d57610100808354040283529160200191610898565b820191906000526020600020905b81548152906001019060200180831161087b57829003601f168201915b505050505090806002018054600181600116156101000203166002900480601f0160208091040260200160405190810160405280929190818152602001828054600181600116156101000203166002900480156109365780601f1061090b57610100808354040283529160200191610936565b820191906000526020600020905b81548152906001019060200180831161091957829003601f168201915b5050505050908060030154905084565b60038054600181600116156101000203166002900480601f0160208091040260200160405190810160405280929190818152602001828054600181600116156101000203166002900480156109dc5780601f106109b1576101008083540402835291602001916109dc565b820191906000526020600020905b8154815290600101906020018083116109bf57829003601f168201915b505050505081565b606060006109f06103d4565b9150509056fea265627a7a72315820ef4e191785421cbcf7690f8b481efb55a3c0975a61153801a48d5e3e791b5e8264736f6c63430005100032526561642d575249544520556e6c696d6974656420537562736372697074696f6e",
  "source": "pragma solidity ^0.5.0;\n\ncontract Software {\n    // Model the software licence offerings\n    struct Licence {\n        uint id;\n        string userID; // added for tracking the UserID\n        string option;\n        uint licenceCount;\n    }\n\n    // Store accounts that have used options\n    mapping(address => bool) public users;\n\n    // Store Options\n    \n    // Fetch Option\n    mapping(uint => Licence) public licences;\n\n    // Store Licence Count\n    uint public licenceCount;\n\n    // Store Licence Count\n    string public userID; // added for tracking the UserID\n\n    // use event\n    event useEvent(uint indexed _licenceId);\n\n    constructor () public {\n        addLicence(\"Read-Only Access (FREE)\");\n        addLicence(\"Read-WRITE One-Time Access\");\n        addLicence(\"Read-WRITE Unlimited Subscription\");\n    }\n\n    function addLicence (string memory _name) private {\n        licenceCount ++;\n        licences[licenceCount] = Licence(licenceCount, userID, _name, 0);\n    }\n\n    function use (uint _licenceId) public {\n        // require that they haven't used before\n        require(!users[msg.sender]);\n\n        // require a valid licence\n        require(_licenceId > 0 && _licenceId <= licenceCount);\n\n        // record that user has used the licence\n        users[msg.sender] = true;\n\n        // update licence use Count\n        licences[_licenceId].licenceCount ++;\n\n        // trigger use event\n        emit useEvent(_licenceId);\n    }\n\n    function test() \n        public\n        view     \n        returns (string memory) \n    {\n\n        uint256 randomNumber;\n        // uint randomNumber = uint(keccak256(abi.encodePacked(_addr))) % MAX_INT;\n        return addressToString();\n    }\n\n    function addressToString() public pure returns(string memory) \n    {       \n        uint256 MIN_INT  = - 1**256;\n        uint256 MAX_INT = 2**256 - 1;\n        uint randomNumber = uint(keccak256(abi.encodePacked(MIN_INT))) % MAX_INT;\n\n\n        bytes32 value = bytes32(uint256(randomNumber));\n        bytes memory alphabet = \"0123456789abcdef\";\n\n        bytes memory str = new bytes(51);\n        str[0] = '0';\n        str[1] = 'x';\n        for (uint256 i = 0; i < 20; i++) {\n            str[2+i*2] = alphabet[uint8(value[i + 12] >> 4)];\n            str[3+i*2] = alphabet[uint8(value[i + 12] & 0x0f)];\n        }\n        return string(str);\n    }\n\n}",
  "sourcePath": "/home/unhommedunord/APS1050/gateway/contracts/Software.sol",
  "compiler": {
    "name": "solc",
    "version": "0.5.16+commit.9c3226ce.Emscripten.clang"
  },
  "schemaVersion": "3.4.0",
  "updatedAt": "2021-04-26T01:45:15.870Z",
  "networkType": "ethereum",
  "devdoc": {
    "methods": {}
  },
  "userdoc": {
    "methods": {}
  }
}